:020000040800F2
:100000000004002001020008210300082103000869
:100010002103000821030008210300082103000830
:100020002103000821030008210300084103000800
:10003000210300082103000821030008110400081F
:100040002103000821030008210300082103000800
:1000500021030008210300082103000821030008F0
:10006000210300082103000821030008210F0008D4
:10007000510F0008810F0008B10F0008E10F0008C0
:100080001110000841100008911400082103000815
:1000900021030008210300082103000821030008B0
:1000A00021030008210300082103000821030008A0
:1000B0002103000821030008E117000821030008BC
:1000C0002103000821030008210300082103000880
:1000D0002103000821030008A118000821030008DB
:1000E0002103000821030008210300082103000860
:1000F00021030008210300082103000871100008F3
:10010000210300082103000821030008210300083F
:10011000210300082103000821030008210300082F
:10012000A1100008D11000080111000831110008C9
:1001300061110008210300082103000821030008C1
:1001400021030008210300082103000821030008FF
:1001500091110008C1110008F111000821030008E5
:1001600021030008210300082103000821030008DF
:1001700021030008210300082103000821030008CF
:0801800021030008210300081F
:1001900070B500F0E5FD00F0ABF94FF44060C4F23B
:1001A00002004FF40041012201F08AFA4FF440644A
:1001B000C4F202044FF4004648F2000525834FF4D0
:1001C000FA6000F0C5FB66834FF4FA6000F0C0FBF4
:1001D000F4E700BFAFF30080AFF30080AFF300801F
:1001E000704700BFAFF30080AFF30080AFF3008033
:1001F000FEE700BFAFF30080AFF30080AFF30080F5
:1002000072B6374880F30988022383F31488BFF35A
:100210006F8F344A344B9A420BD2D143C91821F024
:100220000301131F89184FF0553243F8042F8B42F6
:10023000FBD12E4A82420CD22D49131DC91A21F03E
:100240000301131F89184FF0553243F8042F8B42D6
:10025000FBD101F0CDFB2749274B99420BD2C84374
:10026000C01820F00300254C043000231A595A50BE
:1002700004338342FAD1224A224B9A420AD2D14312
:10028000C91821F00301131F8918002243F8042F15
:100290008B42FBD1FFF7A4FF1B4D1C4B9D420BD2A1
:1002A000EE43F618B608043D0136002455F8043F25
:1002B00001349847B442F9D1FFF76AFF144D154B4A
:1002C0009D420BD2EE43F618B608043D01360024D9
:1002D00055F8043F01349847B442F9D1FFF788FF3D
:1002E000000800200000002000040020000400207E
:1002F000030800200008002000080020201C00083F
:1003000000080020D80A00208801000888010008A1
:100310008801000888010008AFF30080AFF3008077
:10032000FEE700BFAFF30080AFF30080AFF30080C3
:1003300000F086FA00DF00BFAFF30080AFF300806B
:10034000EFF30983203383F30988002383F31188B3
:10035000704700BFAFF30080AFF30080AFF30080C1
:1003600008B54FF46D43CEF200034FF44072C0F273
:10037000FA520021996007201021DA6000F090F80D
:100380000A20202100F08CF80B208021BDE80840D5
:1003900000F086B8AFF30080AFF30080AFF30080C9
:1003A000202383F311884FF46D43CEF200035B6882
:1003B00013F4006319D0EFF30983A3F1200282F351
:1003C000098810494FF080708A6943F8040CD07F87
:1003D00009689268896858B1914294BF002201224D
:1003E00062B1094A43F8082C704783F311887047BB
:1003F000914234BF00220122002AF2D1034A43F87D
:10040000082C704718090020310300083403000845
:1004100008B5202383F3118800F0A2F8002383F3AA
:100420001188BDE80840FFF7BBBF00BFAFF30080F5
:100430002DE9F04FC1F80CD0D0F80CD0BDE8F08F0A
:10044000002383F311882846A04700F0B1FA7047D3
:10045000F0B44FF461438408CEF20003C03400F0DE
:10046000030553F82470ED00FF26420906FA05F64D
:1004700027EA060601FA05F500F01F0002F1600701
:10048000012101FA00F02E4343F8246043F82700CD
:1004900043F82200F0BC7047AFF30080AFF3008058
:1004A00082084FF46D43CEF20003063200F00300E1
:1004B00030B4C00053F82250FF2404FA00F425EAB7
:1004C000040401FA00F10C4343F8224030BC7047A9
:1004D000024B034A9B699A61FEE700BF180900209E
:1004E000101A0008AFF30080AFF30080AFF3008074
:1004F00000B583B0FFF734FF00F0DAF800F060F8E1
:1005000000F0E6FB00F01CFC40F600004021C2F2C7
:10051000000000F0A5F940F61811C2F20001012216
:1005200088610277002383F3118862B641F62020A8
:100530008969C0F600008861009340F6480040F2E7
:10054000D143C021C0F60003C2F2000000F0E8F978
:1005500003B000BDAFF30080AFF30080AFF30080C5
:1005600038B5134B9B69DA7F0AB1013ADA771A6A18
:10057000104C01321A62E36822680133A242E36040
:1005800014D09568013D956085B91368D1685C60A9
:100590002360D560002383F31188106988472023E6
:1005A00083F3118822689368002BEED038BD00BF1A
:1005B0001809002008090020AFF30080AFF3008085
:1005C00040F60813C2F200034FF0FF329A60002297
:1005D0005B601B60DA607047AFF30080AFF30080B0
:1005E00070B40D4E03613468C260A568A94204D995
:1005F0002468491BA5688D42FAD363688160B442C0
:1006000043600460186018BFA36860601CBFC1EB42
:100610000301A16070BC704708090020AFF300809F
:100620000368074A93421FBF996882688A189A60D4
:100630004268136003685A600023C360704700BFBC
:1006400008090020AFF30080AFF30080AFF3008013
:10065000202383F31188037F0D2B11D8DFE803F0EB
:1006600020101007100B101010101010100B436A00
:100670009A6801329A6090E80C001A600268536030
:100680004FF0FF3242628168074B002202771B68FD
:100690009A688A42FBD25A680360426010605860D0
:1006A000002383F31188704718090020AFF30080FE
:1006B00040F61813C2F2000300225B601B609A60D0
:1006C0005B611B61704700BFAFF30080AFF3008038
:1006D00000228168054B02771B689A688A42FBD228
:1006E0005A68036042601060586070471809002023
:1006F00040F61813C2F2000310B499691A6808771B
:1007000014201468C87701201077104663601C60BD
:100710009A6110BCFFF78CBEAFF30080AFF300808E
:1007200030B54B1C87B0054611D00B4C0B4AA36962
:1007300001A8FFF755FF2846FFF7DAFF049B13B126
:1007400001A8FFF76DFFA369586A07B030BDFFF736
:10075000CFFF014CF7E700BF180900205106000841
:10076000F0B4144F8568BE690446B0686162002326
:1007700085420CD823773B461B689A689542FBD983
:100780005A682360626014605C60F0BC7047337725
:100790003B461B689A689042FBD95A683360726086
:1007A00020465E603146012316602377BC61F0BCB1
:1007B000FFF73EBE18090020AFF30080AFF30080C2
:1007C0000E4B18689969026830B453608C681A60DF
:1007D000986114230125CB77002305770B77034617
:1007E00000E01B689A68A242FBD25A680B604A601C
:1007F0001160596030BCFFF71BBE00BF1809002014
:100800000D4B18689969026830B453608C681A609F
:1008100001259861002305770B77034600E01B68EC
:100820009A68A242FBD85A680B604A60116059600E
:1008300030BCFFF7FDBD00BF18090020AFF30080FA
:10084000034B9B69DB7F0BB1FFF7DABFFFF7B8BF44
:1008500018090020AFF30080AFF30080AFF30080F1
:10086000F0B440F61814C2F2000400226569016475
:10087000046100F12C06816000F1280745614FF00A
:10088000020C60610121142480F81CC04277C477F7
:10089000C263826302628177826128618762066334
:1008A000C662F0BC704700BFAFF30080AFF30080BA
:1008B0002DE9F00340F61815C2F20005A1F1240C51
:1008C00000EB0C076969C76040F80C30069B7B6041
:1008D00040F24143C0F600033B6202230377142336
:1008E0000026904600F1280900F12C02C37701236D
:1008F0000561C0F808804161044668614677C0F828
:100900004080C66386630662837786610861C0F8AB
:1009100028900263C262BDE8F0037047AFF3008025
:1009200010B51C4682B0202383F311882346049C13
:100930000094FFF7BDFF00210446FFF711FF0023DD
:1009400083F31188204602B010BD00BFAFF30080D2
:1009500008B50146202383F311880620FFF7E0FE47
:10096000002383F3118808BDAFF30080AFF300804C
:1009700038B50E4B9C692546606255F8280FA84291
:1009800006D00368A362FFF7A3FEA06AA842F8D1CD
:10099000637F9B0704D1636922691A6122695361ED
:1009A0000E20BDE83840FFF7A3BE00BF18090020A5
:1009B000202383F31188FFF7DBBF00BFAFF3008074
:1009C0000023406000608360704700BFAFF3008089
:1009D00008B5826B037F1143082B81630BD0092B71
:1009E00000D008BD436A19408B42FAD1FFF770FE70
:1009F0000023436208BD436A1942F7D108BD00BF16
:100A000070B50468A04205460E4608D0201D0BC8EC
:100A10003343E360FFF7DCFF2468A542F6D170BDE5
:100A200010B4024659B1084B9B69586244680D20C6
:100A300083E814005360236010BCFFF771BE4FF0D1
:100A4000FF3010BC704700BF18090020AFF30080D2
:100A500010B4C361019B40608A1800240060846068
:100A600041618161C1600261036210BC704700BFD7
:100A7000426908B503468069824298681AD00130FD
:100A8000986002F8011B19695A618A420BD21868F2
:100A900098420DD002681A605360FFF719FE0023D8
:100AA0004362184608BD1868DA6898425A61F1D165
:100AB000002008BD0028E2D06FF0030008BD00BF91
:100AC00070B5202304460E4683F31188C36903B131
:100AD0009847A568204631463DB9FFF7A1FF002899
:100AE000F7DA2B4683F3118870BDA3692269013DB3
:100AF000A56013F8010B9342A36124BFE368A361CF
:100B0000002383F3118870BDAFF30080AFF3008042
:100B10002DE9F0471E460446C769202383F3118858
:100B20004FF0000801F1010901EB020A0FB1204664
:100B3000B847A568204631464DB9FFF771FF002838
:100B4000F7D02B4683F311884046BDE8F087A369B0
:100B5000013DA56013F8012B09F8012C2269A3615E
:100B6000934224BFE368A361002383F31188D14536
:100B700008F10108E8D0202383F3118809F1010965
:100B8000D4E700BFAFF30080AFF30080AFF3008085
:100B900010B4C361019B40608C18006082604161A9
:100BA0008161C1600461036210BC7047AFF30080D3
:100BB000F8B504460F461646202383F31188A5682E
:100BC000204631463DB9FFF72BFF0028F7DA2B46C8
:100BD00083F31188F8BD6369013DA56003F8017BCB
:100BE00022696361934224BFE3686361E3690BB1E7
:100BF00020469847002383F311881846F8BD00BFAC
:100C000041698269914210B50346816816D001316D
:100C1000996012F8014B19699A618A420BD21868DF
:100C2000984206D002681A605360FFF751FD002316
:100C30004362204610BDDA689A61F0E70029E6D0E9
:100C40006FF0020010BD00BFAFF30080AFF3008073
:100C50002DE9F0479A46044688461646D0F81C907F
:100C6000202383F311880027A56820466B1EEDB171
:100C7000A36018F8013B656905F8013B23696561CC
:100C80009D4224BFE3686361B9F1000F00D0C847FB
:100C9000002383F311880137013E10D0202383F312
:100CA0001188A56820466B1E002DE1D120465146D3
:100CB000FFF7B6FE0028D7D02B4683F311883846BD
:100CC000BDE8F087AFF30080AFF30080AFF30080A2
:100CD00040F6381240F634134CF200010648C2F2D6
:100CE0000002C2F20003C2F2010120F0070021F06D
:100CF0000701106019607047DF0A0020AFF3008021
:100D0000202383F31188094B09491A6809680730C1
:100D100020F00700891A88429ABF10181860002234
:100D2000002383F311881046704700BF3809002064
:100D300034090020AFF30080AFF30080AFF30080F0
:100D400040F64013C2F2000340F601510022C0F603
:100D5000000103F1100019609A60DA60FFF730BEFD
:100D600008B500F085FA41F62030C0F6000000F02A
:100D7000CFFB00F00DF800F023F800F071F800F060
:100D8000BFF8BDE8084000F03BBE00BFAFF30080F5
:100D900000F046BBAFF30080AFF30080AFF30080FC
:100DA00000230122027043608360C36003614361DA
:100DB0001830FFF705BE00BFAFF30080AFF300802F
:100DC00000F04EBDAFF30080AFF30080AFF30080C2
:100DD0000123037000234360704700BFAFF300801E
:100DE0000C30FFF795BE00BFAFF30080AFF300807B
:100DF0000C304FF0FF33FFF78BBE00BFAFF3008026
:100E00003030FFF725BF00BFAFF30080AFF30080A5
:100E100030304FF0FF33FFF71BBF00BFAFF3008050
:100E20000C30FFF74DBE00BFAFF30080AFF3008082
:100E30000C304FF0FF31FFF743BE00BFAFF300802F
:100E40003030FFF7B5BE00BFAFF30080AFF30080D6
:100E500030304FF0FF32FFF7ABBE00BFAFF3008082
:100E600000F0AEBDAFF30080AFF30080AFF30080C1
:100E700070B541F640230546C0F60003044645F828
:100E8000043B82B0656001250B46164604F154010F
:100E90001022257200F10C000094FFF7D9FD009498
:100EA00004F1300004F1640110223346FFF770FEB4
:100EB00002B070BDAFF30080AFF30080AFF30080ED
:100EC00038B5436904460D463BB104F10C00294690
:100ED000FFF7CEFD00280BDB38BD04300421FFF7FF
:100EE0008FFD04F10C002946FFF7C2FD0028F3DA5C
:100EF000201D8021BDE83840FFF782BDAFF30080A0
:100F000000F046BCAFF30080AFF30080AFF3008089
:100F1000002301220270436083600C30FFF750BD54
:100F200008B54FF4C043C4F20203064819680268CA
:100F300001F03D0199600AB140689047BDE8084062
:100F4000FFF72EBA60090020AFF30080AFF30080F6
:100F50004FF4C043C4F20203074819688268890944
:100F600001F03D0110B58C019C600AB1C06890474A
:100F7000BDE81040FFF714BA60090020AFF300800D
:100F80004FF4C043C4F20203074819680269090C10
:100F900001F03D0110B50C049C600AB14069904716
:100FA000BDE81040FFF7FCB960090020AFF30080F6
:100FB0004FF4C043C4F20203074819688269890DDF
:100FC00001F03D0110B58C059C600AB1C0699047E5
:100FD000BDE81040FFF7E4B960090020AFF30080DE
:100FE00008B54FF4C043C4F2020306485968026AC8
:100FF00001F03D01D9600AB1406A9047BDE8084060
:10100000FFF7CEB960090020AFF30080AFF3008096
:101010004FF4C043C4F2020307485968826A890941
:1010200001F03D0110B58C01DC600AB1C06A904747
:10103000BDE81040FFF7B4B960090020AFF30080AD
:101040004FF4C043C4F2020307485968026B090C0D
:1010500001F03D0110B50C04DC600AB1406B904713
:10106000BDE81040FFF79CB960090020AFF3008095
:101070004FF4C043C4F2020307485968826B890DDC
:1010800001F03D0110B58C05DC600AB1C06B9047E2
:10109000BDE81040FFF784B960090020AFF300807D
:1010A00008B54FF4C843C4F2020306481968026C3D
:1010B00001F03D0199600AB1406C9047BDE80840DD
:1010C000FFF76EB960090020AFF30080AFF3008036
:1010D0004FF4C843C4F2020307481968826C8909B7
:1010E00001F03D0110B58C019C600AB1C06C9047C5
:1010F000BDE81040FFF754B960090020AFF300804D
:101100004FF4C843C4F2020307481968026D090C82
:1011100001F03D0110B50C049C600AB1406D904790
:10112000BDE81040FFF73CB960090020AFF3008034
:101130004FF4C843C4F2020307481968826D890D51
:1011400001F03D0110B58C059C600AB1C06D90475F
:10115000BDE81040FFF724B960090020AFF300801C
:1011600008B54FF4C843C4F2020306485968026E3A
:1011700001F03D01D9600AB1406E9047BDE80840DA
:10118000FFF70EB960090020AFF30080AFF30080D5
:101190004FF4C843C4F2020307485968826E8909B4
:1011A00001F03D0110B58C01DC600AB1C06E9047C2
:1011B000BDE81040FFF7F4B860090020AFF30080ED
:1011C0004FF4C843C4F2020307485968026F090C80
:1011D00001F03D0110B50C04DC600AB1406F90478E
:1011E000BDE81040FFF7DCB860090020AFF30080D5
:1011F0004FF4C843C4F2020307485968826F890D4F
:1012000001F03D0110B58C05DC600AB1C06F90475C
:10121000BDE81040FFF7C4B860090020AFF30080BC
:101220000F4B30B400220F4D0F4C1A60114613467D
:10123000E8580C330160A1500832C02BF8D14FF4AC
:10124000C0414FF4C842C4F20201C4F202024FF09E
:10125000FF338B60CB609360D36030BC704700BFBE
:10126000E0090020601A000860090020AFF3008048
:101270004FF46053C4F2020370B400224FF0FF3405
:1012800019691C611A6159695C615A611E6A4EF2E2
:10129000100166F080561E62CEF200011A6249F219
:1012A0003F054EF6F0505E6A5C62CEF20000072405
:1012B000C0F202055A624D608A600C60C4684FF447
:1012C0008051CEF2000144F08074C460086840F0A0
:1012D00001000860186C4FF4E041C4F2000140F0D6
:1012E00080501864086840F480700860196F01F439
:1012F0004071B1F5007F1EBF4FF4803119671A6746
:101300004FF4E043C4F200035A6822F400725A60BA
:1013100070BCFFF785BF00BFAFF30080AFF3008064
:101320004FF46051C4F202014FF4E043C4F20003F1
:101330004FF080520A644FF440421A600B6843F049
:1013400001030B600A684FF460539007C4F2020374
:10135000F8D51A6802F0F9021A60002219469A605C
:101360008A684FF4605312F00C0FC4F20203F7D1F5
:101370001A6842F480321A6019460A684FF46053C2
:101380009203C4F20203F8D55A6F42F001025A6781
:1013900019464A6F4FF460539007C4F20203F8D520
:1013A00045F20842C0F240725A6019684FF4E042B8
:1013B00041F080711960C4F2000253685904FCD5F1
:1013C0004FF46051C4F202010A684FF46053920175
:1013D000C4F20203F8D54FF470524FF41441C4F232
:1013E0000202C3F60801996040F2057111609A6823
:1013F00042F002029A6019468A6802F00C024FF429
:101400006053082AC4F20203F6D15A6C42F48042B7
:101410005A645A6E42F480425A667047AFF30080B5
:1014200010B540F6E414C2F200042046FFF7B8FC01
:101430004FF40052C4F20102A26242F61643054A7A
:10144000C0F2020312206021E2622363BDE8104073
:10145000FEF7FEBFF01A0008AFF30080AFF3008084
:10146000C16A0A68136823F01F0310B4136013687D
:1014700013F00103FBD10C7A826A49683D2000FA1F
:1014800004F00860536093600123936010BC7047C0
:101490004FF40053C4F2010300211A6810B519601B
:1014A000910625D5164CE36A1B685B6803B3236974
:1014B000F3B12046FFF7D4FF23699B683BB10522B7
:1014C00001212270204698472378052B14D0002252
:1014D0002261202383F31188606930B14FF0FF331C
:1014E0004362074B5A61FFF7F3F8002383F3118837
:1014F000BDE81040FEF754BF02232370E7E700BFAA
:10150000E4090020AFF30080AFF30080AFF3008068
:101510004FF46053C4F202031A6B6FEA52226FEA6F
:1015200042221A631A6D6FEA52226FEA42221A654A
:1015300000234168C4F202034FF48062596081685D
:101540009960C168D960016959614169196281690D
:10155000596201681960016AC4F202024FF4006323
:101560005160416A9160816AD160C16A5161016BC9
:101570001162416B5162C1691160C4F20203C26B16
:101580005A60026C9A60426CDA60826C5A61C26C7A
:101590001A62026D5A62816B4FF440621960816D6C
:1015A000C4F202024FF480535160C16D9160016E2C
:1015B000D160416E5161816E1162C16E5162416DA7
:1015C0001160C4F20203426F5A60826F9A60C26F68
:1015D000DA60D0F880205A61D0F884201A62D0F8FE
:1015E00088205A62016F4FF4A0521960D0F8901011
:1015F000C4F202024FF4C0535160D0F894109160CD
:10160000D0F89810D160D0F89C105161D0F8A0109B
:101610001162D0F8A4105162D0F88C101160D0F88B
:10162000AC10C4F202034FF4E0525960D0F8B0108D
:101630009960D0F8B410D960D0F8B8105961D0F8DA
:10164000BC101962D0F8C0105962D0F8A810C4F2CA
:1016500002021960D0F8C8305360D0F8CC309360E3
:10166000D0F8D030D360D0F8D4305361D0F8D8302F
:101670001362D0F8DC305362D0F8C4104FF400533A
:101680001160D0F8E420C4F202035A60D0F8E820D8
:101690009A60D0F8EC20DA60D0F8F0205A61D0F8E7
:1016A000F4201A62D0F8F8205A62D0F8E0201A60CC
:1016B000704700BFAFF30080AFF30080AFF300804E
:1016C0002DE9F00F002302F00307C2F38006C2F3F6
:1016D000C105C2F341144FF00F09C2F3C3124FF01A
:1016E000010A04E07600AD00A400BF00013303F05E
:1016F000070C4FEA8C0C11F0010F02FA0CF809FAF2
:101700000CFC3CD0072B95BFD0F820B0D0F824B00B
:101710002BEA0C0C2BEA0C0C95BF4CEA08084CEA9F
:101720000808C0F82080C0F82480D0F804C00AFA65
:1017300003F82CEA080C4CEA060CC0F804C04FF081
:10174000030B4FEA430CD0F808800BFA0CFC6FEA4D
:101750000C0C0CEA080848EA0508C0F80880D0F824
:101760000C800CEA080848EA0408C0F80C80D0F89D
:1017700000800CEA080C4CEA070CC0F800C04908CD
:10178000B0D1BDE8F00F7047AFF30080AFF3008039
:1017900038B540F6182340F61C24C2F20004C2F209
:1017A00000034FF6FF7220461A80FFF7B1FB09498C
:1017B0004FF4605016224623C4F2000001F10C05DC
:1017C000C0F20102C0F20103E06121626562A2621F
:1017D000E36238BD841A0008AFF30080AFF30080E5
:1017E00038B51C4D2B691A69DC681440A4B2E1B20B
:1017F00004F00202C94392B21961002A24D104F014
:1018000004039BB2DBB904F008039BB293B904F064
:1018100010039BB24BB9E30703D56B680D489B6877
:101820009847BDE83840FEF7BBBD6B6809489B6A26
:101830009847F0E76B6807481B6A9847E7E76B68CB
:1018400004489B699847DEE76B6828461B69984700
:10185000D5E700BF4C0A0020AFF30080AFF3008053
:1018600010B540F64C24C2F200042046FFF7B0FA4F
:101870004FF40063C4F20003236110BDAFF3008096
:101880004FF48843C4F200039A8992B242F0800276
:101890009A817047AFF30080AFF30080AFF3008010
:1018A000444870B5456FAE892C88A4B204F48073A7
:1018B0009BB2B6B2002B54D1202383F3118823406E
:1018C0009BB25BB928E0A9883A48C9B2FFF7F8FA99
:1018D0002C88A4B204F020039BB2EBB12307F2D012
:1018E00004F0080104F0020389B2002914BF80212A
:1018F00000219BB214F0010F04F004042E4818BF1D
:1019000041F02001A4B20BB141F040010CB141F40F
:101910008071FFF775F8D6E7002383F3118806F08E
:1019200080039BB223B104F080039BB2002B27D12C
:1019300004F04004A4B284B1202383F311881E482C
:101940001021FFF75DF8002383F311884FF63F73F2
:101950003340AB814FF6BF732B80BDE87040FEF77C
:101960001FBD202383F311884FF400710430FFF76B
:1019700047F8002383F311884FF6FF632B809BE722
:10198000202383F311880D48FFF73AF90028A4BFFC
:1019900080B2A88003DB002383F31188C8E70648E0
:1019A0000821FFF72DF826F0C00343F04003AB8178
:1019B000F1E700BF600A0020640A0020900A0020BE
:1019C00010B540F66024C2F2000441F681022046C0
:1019D0000021C0F60002FFF74BFA4FF48843C4F22F
:1019E0000003636710BD00BFAFF30080AFF300805A
:1019F000FFF796BCAFF30080AFF30080AFF3008039
:101A0000704700BFAFF30080AFF30080AFF30080FA
:101A100069646C6500000000000000000000000028
:101A20006D61696E00168311040448080C101418C7
:101A3000001C1D1E1F200000000000000000000010
:101A4000110E0008F10D0008510E0008310E0008BB
:101A5000410E0008210E0008010E0008E10D0008EB
:101A6000106002400860024000000B002860024045
:101A70000860024006010C0040600240086002401D
:101A800010020D00586002400860024016030E006C
:101A9000706002400C60024000040F008860024049
:101AA0000C60024006051000A06002400C6002407D
:101AB00010061100B86002400C60024016072F00AB
:101AC00010640240086402400008380028640240A4
:101AD000086402400609390040640240086402407C
:101AE000100A3A005864024008640240160B3B009A
:101AF000706402400C640240000C3C0088640240A8
:101B00000C640240060D4400A06402400C640240D4
:101B1000100E4500B86402400C640240160F4600E7
:101B200000AAA02A00000000FFABFFFF5400014004
:101B3000FFFF00000000565500AA0A0080200800A0
:101B400040020000FFFFFFFF15455155FFFF000059
:101B5000000000044000000001802002000000009E
:101B6000FFFFFFFF54154554FFFF00000000006019
:101B7000000606000001005500000000FFFFFFFF07
:101B800055505500FF0F000000000000000000004D
:101B90004000000000000000FFFFFFFF0000000009
:101BA000FFFF000000000000000000000000000037
:101BB00000000000FFFFFFFF00000000FFFF00002B
:101BC0000000000000000000000000000000000015
:101BD000FFFFFFFF00000000FFFF0000000000000B
:101BE000000000000000000000000000FFFFFFFFF9
:101BF00000000000FFFF00000000000000000000E7
:101C00000000000000000000FFFFFFFF00000000D8
:0C1C1000FFFF00000000000000000000CA
:0400000508000201EC
:00000001FF
